{
  "_format": "hh-sol-artifact-1",
  "contractName": "ArticleMarketplace",
  "sourceName": "contracts/ArticleMarketplace.sol",
  "abi": [
    {
      "inputs": [],
      "stateMutability": "nonpayable",
      "type": "constructor"
    },
    {
      "inputs": [],
      "name": "CourseHasOwner",
      "type": "error"
    },
    {
      "inputs": [],
      "name": "OnlyOwner",
      "type": "error"
    },
    {
      "inputs": [],
      "name": "getContractOwner",
      "outputs": [
        {
          "internalType": "address",
          "name": "",
          "type": "address"
        }
      ],
      "stateMutability": "view",
      "type": "function"
    },
    {
      "inputs": [
        {
          "internalType": "bytes32",
          "name": "courseHash",
          "type": "bytes32"
        }
      ],
      "name": "getCourseByHash",
      "outputs": [
        {
          "components": [
            {
              "internalType": "uint256",
              "name": "id",
              "type": "uint256"
            },
            {
              "internalType": "uint256",
              "name": "price",
              "type": "uint256"
            },
            {
              "internalType": "bytes32",
              "name": "proof",
              "type": "bytes32"
            },
            {
              "internalType": "address",
              "name": "owner",
              "type": "address"
            },
            {
              "internalType": "enum ArticleMarketplace.State",
              "name": "state",
              "type": "uint8"
            }
          ],
          "internalType": "struct ArticleMarketplace.Course",
          "name": "",
          "type": "tuple"
        }
      ],
      "stateMutability": "view",
      "type": "function"
    },
    {
      "inputs": [],
      "name": "getCourseCount",
      "outputs": [
        {
          "internalType": "uint256",
          "name": "",
          "type": "uint256"
        }
      ],
      "stateMutability": "view",
      "type": "function"
    },
    {
      "inputs": [
        {
          "internalType": "uint256",
          "name": "index",
          "type": "uint256"
        }
      ],
      "name": "getCourseHashAtIndex",
      "outputs": [
        {
          "internalType": "bytes32",
          "name": "",
          "type": "bytes32"
        }
      ],
      "stateMutability": "view",
      "type": "function"
    },
    {
      "inputs": [
        {
          "internalType": "bytes32",
          "name": "courseId",
          "type": "bytes32"
        },
        {
          "internalType": "bytes32",
          "name": "proof",
          "type": "bytes32"
        }
      ],
      "name": "purchaseCourse",
      "outputs": [],
      "stateMutability": "payable",
      "type": "function"
    },
    {
      "inputs": [
        {
          "internalType": "address",
          "name": "newOwner",
          "type": "address"
        }
      ],
      "name": "transferOwnership",
      "outputs": [],
      "stateMutability": "nonpayable",
      "type": "function"
    }
  ],
  "bytecode": "0x608060405234801561001057600080fd5b506100203361002560201b60201c565b610069565b80600360006101000a81548173ffffffffffffffffffffffffffffffffffffffff021916908373ffffffffffffffffffffffffffffffffffffffff16021790555050565b610ae5806100786000396000f3fe6080604052600436106100555760003560e01c80632f27f51a1461005a578063442890d51461007657806362e4e6ac146100a15780636d11290b146100de57806396cfda061461011b578063f2fde38b14610146575b600080fd5b610074600480360381019061006f919061070d565b61016f565b005b34801561008257600080fd5b5061008b61035b565b604051610098919061089d565b60405180910390f35b3480156100ad57600080fd5b506100c860048036038101906100c391906106e4565b610385565b6040516100d591906108d3565b60405180910390f35b3480156100ea57600080fd5b5061010560048036038101906101009190610749565b6104ac565b60405161011291906108b8565b60405180910390f35b34801561012757600080fd5b506101306104c9565b60405161013d91906108ee565b60405180910390f35b34801561015257600080fd5b5061016d600480360381019061016891906106bb565b6104d3565b005b60008233604051602001610184929190610871565b6040516020818303038152906040528051906020012090506101a58161054b565b156101dc576040517fb0fc2d9700000000000000000000000000000000000000000000000000000000815260040160405180910390fd5b6000600260008154809291906101f190610974565b9190505590508160016000838152602001908152602001600020819055506040518060a001604052808281526020013481526020018481526020013373ffffffffffffffffffffffffffffffffffffffff16815260200160006002811115610282577f4e487b7100000000000000000000000000000000000000000000000000000000600052602160045260246000fd5b81525060008084815260200190815260200160002060008201518160000155602082015181600101556040820151816002015560608201518160030160006101000a81548173ffffffffffffffffffffffffffffffffffffffff021916908373ffffffffffffffffffffffffffffffffffffffff16021790555060808201518160030160146101000a81548160ff0219169083600281111561034d577f4e487b7100000000000000000000000000000000000000000000000000000000600052602160045260246000fd5b021790555090505050505050565b6000600360009054906101000a900473ffffffffffffffffffffffffffffffffffffffff16905090565b61038d6105fc565b6000808381526020019081526020016000206040518060a00160405290816000820154815260200160018201548152602001600282015481526020016003820160009054906101000a900473ffffffffffffffffffffffffffffffffffffffff1673ffffffffffffffffffffffffffffffffffffffff1673ffffffffffffffffffffffffffffffffffffffff1681526020016003820160149054906101000a900460ff166002811115610469577f4e487b7100000000000000000000000000000000000000000000000000000000600052602160045260246000fd5b60028111156104a1577f4e487b7100000000000000000000000000000000000000000000000000000000600052602160045260246000fd5b815250509050919050565b600060016000838152602001908152602001600020549050919050565b6000600254905090565b6104db61035b565b73ffffffffffffffffffffffffffffffffffffffff163373ffffffffffffffffffffffffffffffffffffffff161461053f576040517f5fc483c500000000000000000000000000000000000000000000000000000000815260040160405180910390fd5b610548816105b8565b50565b60003373ffffffffffffffffffffffffffffffffffffffff1660008084815260200190815260200160002060030160009054906101000a900473ffffffffffffffffffffffffffffffffffffffff1673ffffffffffffffffffffffffffffffffffffffff16149050919050565b80600360006101000a81548173ffffffffffffffffffffffffffffffffffffffff021916908373ffffffffffffffffffffffffffffffffffffffff16021790555050565b6040518060a00160405280600081526020016000815260200160008019168152602001600073ffffffffffffffffffffffffffffffffffffffff16815260200160006002811115610676577f4e487b7100000000000000000000000000000000000000000000000000000000600052602160045260246000fd5b81525090565b60008135905061068b81610a6a565b92915050565b6000813590506106a081610a81565b92915050565b6000813590506106b581610a98565b92915050565b6000602082840312156106cd57600080fd5b60006106db8482850161067c565b91505092915050565b6000602082840312156106f657600080fd5b600061070484828501610691565b91505092915050565b6000806040838503121561072057600080fd5b600061072e85828601610691565b925050602061073f85828601610691565b9150509250929050565b60006020828403121561075b57600080fd5b6000610769848285016106a6565b91505092915050565b61077b81610909565b82525050565b61078a81610909565b82525050565b6107a161079c82610909565b6109bd565b82525050565b6107b08161091b565b82525050565b6107bf8161091b565b82525050565b6107d66107d18261091b565b6109cf565b82525050565b6107e581610962565b82525050565b60a0820160008201516108016000850182610853565b5060208201516108146020850182610853565b50604082015161082760408501826107a7565b50606082015161083a6060850182610772565b50608082015161084d60808501826107dc565b50505050565b61085c81610958565b82525050565b61086b81610958565b82525050565b600061087d82856107c5565b60208201915061088d8284610790565b6014820191508190509392505050565b60006020820190506108b26000830184610781565b92915050565b60006020820190506108cd60008301846107b6565b92915050565b600060a0820190506108e860008301846107eb565b92915050565b60006020820190506109036000830184610862565b92915050565b600061091482610938565b9050919050565b6000819050919050565b600081905061093382610a56565b919050565b600073ffffffffffffffffffffffffffffffffffffffff82169050919050565b6000819050919050565b600061096d82610925565b9050919050565b600061097f82610958565b91507fffffffffffffffffffffffffffffffffffffffffffffffffffffffffffffffff8214156109b2576109b16109eb565b5b600182019050919050565b60006109c8826109d9565b9050919050565b6000819050919050565b60006109e482610a49565b9050919050565b7f4e487b7100000000000000000000000000000000000000000000000000000000600052601160045260246000fd5b7f4e487b7100000000000000000000000000000000000000000000000000000000600052602160045260246000fd5b60008160601b9050919050565b60038110610a6757610a66610a1a565b5b50565b610a7381610909565b8114610a7e57600080fd5b50565b610a8a8161091b565b8114610a9557600080fd5b50565b610aa181610958565b8114610aac57600080fd5b5056fea2646970667358221220369b4652e6d3587619e97d9f9ee4956373562160542940fff466a31ea2cf18a764736f6c63430008040033",
  "linkReferences": {},
  "deployedLinkReferences": {}
}